:020000040800F2
:1000000000000220C90A0008650A00086B0A0008FF
:10001000710A0008770A00087D0A00080000000045
:10002000000000000000000000000000A13F0008E8
:10003000830A000800000000F1410008594200084E
:10004000190B0008190B0008190B0008190B000800
:10005000190B0008190B0008190B0008190B0008F0
:10006000190B0008190B0008190B0008190B0008E0
:10007000190B0008190B0008190B0008190B0008D0
:10008000190B0008190B0008190B0008190B0008C0
:10009000190B0008190B0008190B0008190B0008B0
:1000A000190B0008190B0008190B0008190B0008A0
:1000B000190B0008190B0008190B0008190B000890
:1000C000190B0008190B0008190B0008190B000880
:1000D000190B0008190B0008114B0008190B000838
:1000E000190B0008190B0008190B0008190B000860
:1000F000190B0008190B0008190B0008190B000850
:10010000190B0008190B0008190B0008190B00083F
:10011000190B0008190B0008910A0008190B0008B8
:10012000190B0008190B0008190B0008190B00081F
:10013000190B00080000000000000000190B000867
:10014000190B0008190B0008190B0008190B0008FF
:10015000190B0008190B0008190B0008190B0008EF
:10016000190B0008190B0008190B0008190B0008DF
:10017000190B0008190B0008190B000800000000FB
:1001800000000000190B0008000000000000000043
:10019000190B00080000000000000000190B000807
:1001A000000000000000000000000000190B000823
:1001B000190B0008190B0008190B0008190B00088F
:0401C000190B00080F
:1001D00010B5054C237833B9044B13B10448AFF381
:1001E00000800123237010BD1C00002000000000CF
:1001F0006C70000808B5034B1BB103490348AFF30B
:10020000008008BD00000000200000206C70000885
:10021000F0B400EB4003DFF8880000EBC30000F10E
:1002200018063069F7687568874232D3B368DC1BFB
:10023000631E934214D37D19D01900BF11F8013BFE
:1002400005F8013B013A05D011F8013B05F8013BE7
:10025000013AF3D1BFF35F8FF0600120F0BC70472B
:10026000C018904219D37819121B11F8013B00F8FD
:10027000013B013CF9D1141C05D011F8013B05F8F4
:10028000013B013AF9D1BFF35F8FF4600120F0BC6C
:100290007047C01B01389042CDD20020F0BC70479F
:1002A000D42E012053B94AB9002908BF00281CBF29
:1002B0004FF0FF314FF0FF3000F074B9ADF1080C92
:1002C0006DE904CE00F006F8DDF804E0DDE9022374
:1002D00004B070472DE9F047089D04468E46002B78
:1002E0004DD18A42944669D9B2FA82F252B101FAEA
:1002F00002F3C2F1200120FA01F10CFA02FC41EAFA
:10030000030E94404FEA1C48210CBEFBF8F61FFA7E
:100310008CF708FB16E341EA034306FB07F1994219
:100320000AD91CEB030306F1FF3080F01F819942CC
:1003300040F21C81023E63445B1AA4B2B3FBF8F0A6
:1003400008FB103344EA034400FB07F7A7420AD92D
:100350001CEB040400F1FF3380F00A81A74240F255
:1003600007816444023840EA0640E41B00261DB1C0
:10037000D4400023C5E900433146BDE8F0878B42F5
:1003800009D9002D00F0EF800026C5E900013046B4
:100390003146BDE8F087B3FA83F6002E4AD18B428E
:1003A00002D3824200F2F980841A61EB0303012038
:1003B0009E46002DE0D0C5E9004EDDE702B9FFDE24
:1003C000B2FA82F2002A40F09280A1EB0C014FEACF
:1003D0001C471FFA8CFE0126200CB1FBF7F307FB2C
:1003E000131140EA01410EFB03F0884208D91CEBCF
:1003F000010103F1FF3802D2884200F2CB8043466C
:10040000091AA4B2B1FBF7F007FB101144EA01444A
:100410000EFB00FEA64508D91CEB040400F1FF31D9
:1004200002D2A64500F2BB800846A4EB0E0440EAC7
:1004300003409CE7C6F12007B34022FA07FC4CEAD0
:10044000030C20FA07F401FA06F31C43F9404FEAC3
:100450001C4900FA06F3B1FBF9F8200C1FFA8CFED8
:1004600009FB181140EA014108FB0EF0884202FA2C
:1004700006F20BD91CEB010108F1FF3A80F08880ED
:10048000884240F28580A8F102086144091AA4B2AA
:10049000B1FBF9F009FB101144EA014100FB0EFE2B
:1004A0008E4508D91CEB010100F1FF346CD28E455A
:1004B0006AD90238614440EA0840A0FB0294A1EBEB
:1004C0000E01A142C846A64656D353D05DB1B3EB48
:1004D000080261EB0E0101FA07F722FA06F3F14078
:1004E0001F43C5E9007100263146BDE8F087C2F11F
:1004F0002003D8400CFA02FC21FA03F39140014397
:100500004FEA1C471FFA8CFEB3FBF7F007FB1036CF
:100510000B0C43EA064300FB0EF69E4204FA02F47B
:1005200008D91CEB030300F1FF382FD29E422DD9CE
:10053000023863449B1B89B2B3FBF7F607FB163303
:1005400041EA034106FB0EF38B4208D91CEB010183
:1005500006F1FF3816D28B4214D9023E6144C91A03
:1005600046EA004638E72E46284605E70646E3E613
:100570001846F8E64B45A9D2B9EB020864EB0C0E1D
:100580000138A3E74646EAE7204694E74046D1E72C
:10059000D0467BE7023B614432E7304609E76444DA
:1005A000023842E7704700BF80B58AB002AF00F062
:1005B000B5FA00F06DF800F0D7F82D4B1B682C4A07
:1005C00043F0010313602B4804F090FA04F0B8F8EC
:1005D00007F10C030193022300930023C82226494C
:1005E000264802F0FBF9F861FB69012B0AD04FF0B5
:1005F000500383F31188BFF36F8FBFF34F8FBB613D
:1006000000BFFEE707F108030193022300930023D4
:10061000C8221B491B4802F0E1F9F861FB69012B74
:100620000AD04FF0500383F31188BFF36F8FBFF3ED
:100630004F8F7B6100BFFEE73B1D019302230093B8
:100640000023C8221049114802F0C8F9F861FB697B
:10065000012B0AD04FF0500383F31188BFF36F8F43
:10066000BFF34F8F3B6100BFFEE702F077FBFEE771
:10067000001000E020A10700847000087108000845
:100680008C7000089D08000894700008C5080008D8
:1006900080B594B000AF07F11C0334220021184646
:1006A00006F0DCFC07F1080300221A605A609A6029
:1006B000DA601A6100237B60294B1B6C284A43F0E7
:1006C00080531364264B1B6C03F080537B607B6864
:1006D00000233B60234B1B68224A43F440431360D2
:1006E000204B1B6803F440433B603B680223FB61E3
:1006F0000123BB621023FB6202237B630023BB63E5
:100700000823FB63A8233B6402237B640223BB64AE
:100710000223FB6407F11C03184601F053F803465B
:10072000002B01D000F0F4F80F23BB600223FB6024
:1007300000233B614FF4A0537B614FF48053BB61B6
:1007400007F108030521184600F0D4FC0346002BEE
:1007500001D000F0DDF800BF5037BD4680BD00BFBE
:10076000003802400070004080B58AB000AF07F149
:10077000140300221A605A609A60DA601A6100233A
:100780003B61384B1B6B374A43F004031363354B13
:100790001B6B03F004033B613B690023FB60314B9F
:1007A0001B6B304A43F0800313632E4B1B6B03F02B
:1007B0008003FB60FB680023BB602A4B1B6B294A4C
:1007C00043F001031363274B1B6B03F00103BB6072
:1007D000BB6800237B60234B1B6B224A43F0020360
:1007E0001363204B1B6B03F002037B607B680022CA
:1007F00020211D4800F04AFC00224FF4B0711B4834
:1008000000F044FC4FF400537B614FF40413BB61D0
:100810000023FB6107F114031946144800F0A2FA03
:1008200020237B610123BB610023FB6100233B622A
:1008300007F1140319460C4800F094FA4FF4B07312
:100840007B610123BB610023FB6100233B6207F155
:1008500014031946054800F085FA00BF2837BD4645
:1008600080BD00BF00380240000002400008024086
:1008700080B582B000AF7860064806F00FFB4FF4F9
:100880008071054800F01BFC4FF47A7002F02EFADC
:10089000F2E700BF9C7000080008024080B582B0FB
:1008A00000AF7860054806F0F9FA4021044800F0EE
:1008B00006FC4FF4487002F019FAF3E7AC70000838
:1008C0000008024080B582B000AF7860054806F0AD
:1008D000E5FA2021044800F0F2FBFA2002F006FAC3
:1008E000F4E700BFBC7000080008024080B582B089
:1008F00000AF78607B681B68044A934201D100F026
:100900002FF900BF0837BD4680BD00BF0010004072
:1009100080B400AF72B600BFFEE7000080B483B0C1
:1009200000AF00237B60104B5B6C0F4A43F48043A5
:1009300053640D4B5B6C03F480437B607B68002346
:100940003B60094B1B6C084A43F080531364064B11
:100950001B6C03F080533B603B6800BF0C37BD4607
:100960005DF8047B704700BF0038024080B58EB050
:1009700000AF78600023FB620023BB620023FB60B2
:10098000334B1B6C324A43F010031364304B1B6C27
:1009900003F01003FB60FB6807F1100207F114037A
:1009A0001146184600F0ACFC3B6AFB62FB6A002B68
:1009B00003D100F091FC786304E000F08DFC034665
:1009C0005B007B637B6B234AA2FB03239B0C013BF5
:1009D000BB62214B214A1A601F4B40F2E732DA60BA
:1009E0001D4ABB6A53601C4B00221A611A4B00223D
:1009F0009A60194B00229A61174801F081F9034669
:100A000087F8333097F83330002B1BD1124801F0B0
:100A1000D1F9034687F8333097F83330002B11D1E2
:100A2000362000F091F97B680F2B08D800227968F6
:100A3000362000F06DF90A4A7B68136002E001235A
:100A400087F8333097F8333018463837BD4680BDC5
:100A50000038024083DE1B433800002000100040B5
:100A60000400002080B400AFFEE780B400AFFEE7D2
:100A700080B400AFFEE780B400AFFEE780B400AF03
:100A8000FEE780B400AF00BFBD465DF8047B704751
:100A900080B500AF024801F0FDF900BF80BD00BF86
:100AA0003800002080B400AF064BD3F88830054AE8
:100AB00043F47003C2F8883000BFBD465DF8047B84
:100AC000704700BF00ED00E0DFF834D00D480E495C
:100AD0000E4A002302E0D458C4500433C4188C4298
:100AE000F9D30B4A0B4C002301E013600432A242FD
:100AF000FBD3FFF7D7FF06F06FFAFFF755FD7047FE
:100B000000000220000000201C0000200C720008E1
:100B10001C000020A8440120FEE7000080B500AFC3
:100B20000E4B1B680D4A43F4007313600B4B1B689C
:100B30000A4A43F480631360084B1B68074A43F476
:100B400080731360032000F0D8F80F20FFF70EFF2A
:100B5000FFF7E4FE0023184680BD00BF003C0240C2
:100B600080B400AF064B1B781A46064B1B68134433
:100B7000044A136000BFBD465DF8047B704700BFA8
:100B8000080000208000002080B400AF034B1B68E9
:100B90001846BD465DF8047B704700BF800000200A
:100BA00080B485B000AF78607B6803F00703FB601A
:100BB0000C4BDB68BB60BA684FF6FF031340BB60A9
:100BC000FB681A02BB68134343F0BF6343F400336E
:100BD000BB60044ABB68D36000BF1437BD465DF8F4
:100BE000047B704700ED00E080B400AF044BDB688D
:100BF0001B0A03F007031846BD465DF8047B7047E7
:100C000000ED00E080B483B000AF0346FB7197F9BC
:100C10000730002B0BDBFB7903F01F02074997F924
:100C200007305B09012000FA02F241F8232000BFDF
:100C30000C37BD465DF8047B704700BF00E100E063
:100C400080B483B000AF03463960FB7197F9073079
:100C5000002B0ADB3B68DAB20C4997F90730120126
:100C6000D2B20B4483F800230AE03B68DAB20849A9
:100C7000FB7903F00F03043B1201D2B20B441A7646
:100C800000BF0C37BD465DF8047B704700E100E013
:100C900000ED00E080B489B000AFF860B9607A6020
:100CA000FB6803F00703FB61FB69C3F10703042B37
:100CB00028BF0423BB61FB690433062B02D9FB69FF
:100CC000033B00E000237B614FF0FF32BB6902FA77
:100CD00003F3DA43BB681A407B699A404FF0FF3157
:100CE0007B6901FA03F3D9437B680B401343184631
:100CF0002437BD465DF8047B704780B582B000AFF5
:100D000078607868FFF74CFF00BF0837BD4680BDAC
:100D100080B586B000AF0346B9607A60FB730023EC
:100D20007B61FFF761FF78617A68B9687869FFF7DE
:100D3000B1FF024697F90F3011461846FFF780FFC2
:100D400000BF1837BD4680BD80B582B000AF0346F6
:100D5000FB7197F907301846FFF754FF00BF0837BB
:100D6000BD4680BD80B489B000AF78603960002393
:100D70007B6100233B610023BB610023FB6165E1D4
:100D80000122FB6902FA03F37B613B681B687A6905
:100D900013403B613A697B699A4240F054813B6859
:100DA0005B6803F00303012B05D03B685B6803F02D
:100DB0000303022B30D17B689B68BB61FB695B003E
:100DC000032202FA03F3DB43BA691340BB613B68B9
:100DD000DA68FB695B0002FA03F3BA691343BB618B
:100DE0007B68BA699A607B685B68BB610122FB69BA
:100DF00002FA03F3DB43BA691340BB613B685B68EB
:100E00001B0903F00102FB6902FA03F3BA691343F9
:100E1000BB617B68BA695A603B685B6803F0030397
:100E2000032B17D07B68DB68BB61FB695B00032287
:100E300002FA03F3DB43BA691340BB613B689A686B
:100E4000FB695B0002FA03F3BA691343BB617B6879
:100E5000BA69DA603B685B6803F00303022B23D1B5
:100E6000FB69DA087B68083253F82230BB61FB6902
:100E700003F007039B000F2202FA03F3DB43BA6976
:100E80001340BB613B681A69FB6903F007039B00D1
:100E900002FA03F3BA691343BB61FB69DA087B68A2
:100EA0000832B96943F822107B681B68BB61FB6993
:100EB0005B00032202FA03F3DB43BA691340BB6110
:100EC0003B685B6803F00302FB695B0002FA03F313
:100ED000BA691343BB617B68BA691A603B685B6897
:100EE00003F44033002B00F0AE800023FB605D4B29
:100EF0005B6C5C4A43F4804353645A4B5B6C03F471
:100F00008043FB60FB68584AFB699B08023352F838
:100F10002330BB61FB6903F003039B000F2202FA3D
:100F200003F3DB43BA691340BB617B684F4A9342CA
:100F300025D07B684E4A93421FD07B684D4A93422E
:100F400019D07B684C4A934213D07B684B4A93423A
:100F50000DD07B684A4A934207D07B68494A934246
:100F600001D106230CE007230AE0052308E004234F
:100F700006E0032304E0022302E0012300E0002353
:100F8000FA6902F0030292009340BA691343BB610D
:100F90003549FB699B080233BA6941F823203A4B73
:100FA0009B68BB613B69DB43BA691340BB613B682B
:100FB0005B6803F48013002B03D0BA693B691343C9
:100FC000BB61314ABB6993602F4BDB68BB613B69F6
:100FD000DB43BA691340BB613B685B6803F40013F1
:100FE000002B03D0BA693B691343BB61264ABB6936
:100FF000D360254B5B68BB613B69DB43BA69134037
:10100000BB613B685B6803F40033002B03D0BA6913
:101010003B691343BB611C4ABB6953601A4B1B6895
:10102000BB613B69DB43BA691340BB613B685B68EA
:1010300003F48033002B03D0BA693B691343BB61CF
:10104000114ABB691360FB690133FB61FB690F2B1C
:101050007FF696AE00BF00BF2437BD465DF8047B27
:10106000704700BF003802400038014000000240D5
:101070000004024000080240000C02400010024040
:101080000014024000180240003C014080B483B0CC
:1010900000AF78600B467B8013467B707B78002B1B
:1010A00003D07A887B689A6103E07B881A047B68A6
:1010B0009A6100BF0C37BD465DF8047B704780B471
:1010C00085B000AF78600B467B807B685B69FB6016
:1010D0007A88FB6813401A04FB68D9437B880B406D
:1010E0001A437B689A6100BF1437BD465DF8047BE4
:1010F0007047000080B584B000AF786039607B68CD
:10110000002B01D10123CCE0684B1B6803F00F03D7
:101110003A689A420CD9654B3A68D2B21A70634B5E
:101120001B6803F00F033A689A4201D00123B8E02C
:101130007B681B6803F00203002B20D07B681B68D0
:1011400003F00403002B05D0594B9B68584A43F425
:10115000E05393607B681B6803F00803002B05D005
:10116000534B9B68524A43F460439360504B9B68D7
:1011700023F0F0027B689B684D4913438B607B68CA
:101180001B6803F00103002B44D07B685B68012BD4
:1011900007D1474B1B6803F40033002B19D10123FF
:1011A0007FE07B685B68022B03D07B685B68032B66
:1011B00007D13F4B1B6803F00073002B09D10123BB
:1011C0006FE03B4B1B6803F00203002B01D10123AE
:1011D00067E0374B9B6823F003027B685B68344908
:1011E00013438B60FFF7D0FCF8600AE0FFF7CCFCFC
:1011F0000246FB68D31A41F28832934201D9032395
:101200004FE02B4B9B6803F00C027B685B689B00F4
:101210009A42EBD1254B1B6803F00F033A689A42C0
:101220000CD2224B3A68D2B21A70204B1B6803F0E2
:101230000F033A689A4201D0012332E07B681B68B1
:1012400003F00403002B08D0194B9B6823F4E052F1
:101250007B68DB68164913438B607B681B6803F06F
:101260000803002B09D0124B9B6823F460427B6873
:101270001B69DB000E4913438B6000F073F80246D4
:101280000B4B9B681B0903F00F030A49CB5C22FA46
:1012900003F3094A1360094B1B681846FFF766FB06
:1012A000002318461037BD4680BD00BF003C0240F9
:1012B00000380240A871000800000020040000204F
:1012C00080B400AF034B1B681846BD465DF8047B35
:1012D000704700BF0000002080B500AFFFF7F0FFAF
:1012E0000246054B9B689B0A03F007030349CB5C4E
:1012F00022FA03F3184680BD00380240B871000896
:1013000080B483B000AF786039607B680F221A60C8
:10131000124B9B6803F003027B685A600F4B9B687B
:1013200003F0F0027B689A600C4B9B6803F4E05278
:101330007B68DA60094B9B68DB0803F4E0527B684A
:101340001A61074B1B6803F00F023B681A6000BF6D
:101350000C37BD465DF8047B704700BF0038024083
:10136000003C02402DE9B04FAEB000AF0023C7F8FB
:10137000AC300023C7F8B4300023C7F8A8300023EE
:10138000C7F8A4300023C7F8B030CB4B9B6803F0FC
:101390000C030C2B00F2068201A252F823F000BFCE
:1013A000D5130008A5170008A5170008A517000801
:1013B000DD130008A5170008A5170008A5170008E9
:1013C000E5130008A5170008A5170008A5170008D1
:1013D000D5150008B94BC7F8B030E7E1B84BC7F8EE
:1013E000B030E3E1B44B5B6803F03F03C7F8AC30C7
:1013F000B14B5B6803F48003002B71D0AE4B5B688C
:101400009B090022C7F89830C7F89C20D7F898307D
:10141000C3F30803C7F890300023C7F89430D7E926
:10142000244522462B464FF000004FF000015901A1
:1014300041EAD261500102460B462146511A3964F5
:10144000294663EB01037B644FF000024FF0000379
:10145000D7E9108949468B01414643EA91634146E9
:101460008A014146511AB963494663EB0103FB63A4
:101470004FF000024FF00003D7E90E894946CB0038
:10148000414643EA51734146CA0010461946034695
:1014900022469B183B632B460A4642EB03037B63C1
:1014A0004FF000024FF00003D7E90C4529464B02EC
:1014B000214643EAD15321464A0210461946D7F83D
:1014C000AC300022C7F88830C7F88C20D7E9222337
:1014D000FEF7E8FE02460B461346C7F8B43067E055
:1014E000754B5B689B090022C7F88030C7F88420E1
:1014F000D7F88030C3F30803BB670023FB67D7E945
:101500001E4522462B464FF000004FF000015901C6
:1015100041EAD261500102460B462146511AB96296
:10152000294663EB0103FB624FF000024FF000031A
:10153000D7E90A8949468B01414643EA916341460E
:101540008A014146B2EB010A494663EB010B4FF0B9
:1015500000024FF000034FEACB0343EA5A734FEA0D
:10156000CA0292469B4623461AEB03033B622B4674
:101570004BEB03037B624FF000024FF00003D7E90F
:10158000084529468B02214643EA915321468A02A7
:1015900010461946D7F8AC3000223B677A67D7E986
:1015A0001C23FEF77FFE02460B461346C7F8B430F5
:1015B000414B5B681B0C03F0030301335B00C7F86E
:1015C000A830D7F8B420D7F8A830B2FBF3F3C7F8A7
:1015D000B030EBE0384B5B6803F03F03C7F8AC304A
:1015E000354B5B6803F48003002B6BD0324B5B6898
:1015F0009B090022BB66FA66BB6EC3F308033B6619
:1016000000237B66D7E9184522462B464FF00000A1
:101610004FF00001590141EAD261500102460B46E8
:101620002146511AB961294663EB0103FB614FF072
:1016300000024FF00003D7E906AB59468B01514633
:1016400043EA916351468A015146B2EB010859467B
:1016500063EB01094FF000024FF000034FEAC903AA
:1016600043EA58734FEAC80290469946234618EB5E
:1016700003033B612B4649EB03037B614FF0000200
:101680004FF00003D7E9044529464B02214643EABF
:10169000D15321464A0210461946D7F8AC300022F1
:1016A000BB65FA65D7E91623FEF7FCFD02460B463B
:1016B0001346C7F8B43065E0003802400024F40057
:1016C00000127A003D4B5B689B09002218461146C8
:1016D000C0F308033B6500237B65D7E914894246C4
:1016E0004B464FF000004FF00001590141EAD26132
:1016F000500102460B464146511AB960494663EB18
:101700000103FB604FF000024FF00003D7E902AB8A
:1017100059468B01514643EA916351468A0151462D
:10172000541A594663EB01054FF000024FF00003D5
:10173000EB0043EA5473E20014461D464346E318A7
:101740003B604B4645EB03037B604FF000024FF0DC
:101750000003D7E9004529468B02214643EA91530D
:1017600021468A0210461946D7F8AC300022BB64E5
:10177000FA64D7E91223FEF795FD02460B4613469D
:10178000C7F8B4300D4B5B681B0F03F00703C7F8B5
:10179000A430D7F8B420D7F8A430B2FBF3F3C7F8DD
:1017A000B03003E0064BC7F8B03000BFD7F8B03018
:1017B0001846B837BD46BDE8B08F00BF00380240BC
:1017C0000024F40080B586B000AF78607B68002B01
:1017D00001D101238DE27B681B6803F00103002B1C
:1017E00000F08380944B9B6803F00C03042B19D00A
:1017F000914B9B6803F00C03082B06D18E4B5B6862
:1018000003F48003B3F5800F0CD08B4B9B6803F07F
:101810000C030C2B12D1884B5B6803F48003B3F5E7
:10182000800F0BD1844B1B6803F40033002B5BD07B
:101830007B685B68002B57D101235AE27B685B68A9
:10184000B3F5803F06D17C4B1B687B4A43F4803361
:1018500013601DE07B685B68B3F5A02F0CD1764B5D
:101860001B68754A43F480231360734B1B68724AEC
:1018700043F4803313600BE06F4B1B686E4A23F414
:10188000803313606C4B1B686B4A23F48023136016
:101890007B685B68002B13D0FFF776F9386108E0AE
:1018A000FFF772F902463B69D31A642B01D903236F
:1018B0001FE2614B1B6803F40033002BF0D014E0EF
:1018C000FFF762F9386108E0FFF75EF902463B690D
:1018D000D31A642B01D903230BE2574B1B6803F483
:1018E0000033002BF0D100E000BF7B681B6803F0E1
:1018F0000203002B6FD0504B9B6803F00C03002BAE
:1019000017D04D4B9B6803F00C03082B05D14A4BB5
:101910005B6803F48003002B0BD0474B9B6803F0FC
:101920000C030C2B1CD1444B5B6803F48003002B8D
:1019300016D1414B1B6803F00203002B05D07B68D6
:10194000DB68012B01D00123D3E13B4B1B6823F063
:10195000F8027B681B69DB00374913430B603AE0F0
:101960007B68DB68002B20D0344B01221A60FFF724
:101970000BF9386108E0FFF707F902463B69D31A13
:10198000022B01D90323B4E12B4B1B6803F00203A4
:10199000002BF0D0284B1B6823F0F8027B681B69F2
:1019A000DB00254913430B6015E0244B00221A602D
:1019B000FFF7EAF8386108E0FFF7E6F802463B690E
:1019C000D31A022B01D9032393E11B4B1B6803F0AD
:1019D0000203002BF0D17B681B6803F00803002B87
:1019E00036D07B685B69002B16D0154B01221A603C
:1019F000FFF7CAF8386108E0FFF7C6F802463B690E
:101A0000D31A022B01D9032373E10B4B5B6F03F055
:101A10000203002BF0D01BE0094B00221A60FFF7F5
:101A2000B3F838610EE0FFF7AFF802463B69D31A0E
:101A3000022B07D903235CE1003802400000474233
:101A4000800E47428A4B5B6F03F00203002BEAD102
:101A50007B681B6803F00403002B00F097800023D1
:101A6000FB75834B1B6C03F08053002B0FD10023BD
:101A7000BB607F4B1B6C7E4A43F0805313647C4BEE
:101A80001B6C03F08053BB60BB680123FB75794B73
:101A90001B6803F48073002B18D1764B1B68754AC2
:101AA00043F480731360FFF76FF8386108E0FFF7C5
:101AB0006BF802463B69D31A022B01D9032318E1C4
:101AC0006C4B1B6803F48073002BF0D07B689B6821
:101AD000012B06D1664B1B6F654A43F00103136768
:101AE0001CE07B689B68052B0CD1614B1B6F604A27
:101AF00043F0040313675E4B1B6F5D4A43F0010321
:101B000013670BE05A4B1B6F594A23F0010313670D
:101B1000574B1B6F564A23F0040313677B689B687F
:101B2000002B15D0FFF730F838610AE0FFF72CF8EA
:101B300002463B69D31A41F28832934201D903230A
:101B4000D7E04B4B1B6F03F00203002BEED014E0E9
:101B5000FFF71AF838610AE0FFF716F802463B690A
:101B6000D31A41F28832934201D90323C1E0404B9A
:101B70001B6F03F00203002BEED1FB7D012B05D17F
:101B80003B4B1B6C3A4A23F0805313647B689B6980
:101B9000002B00F0AD80364B9B6803F00C03082B44
:101BA00060D07B689B69022B45D1334B00221A60C1
:101BB000FEF7EAFF386108E0FEF7E6FF02463B6900
:101BC000D31A022B01D9032393E0294B1B6803F09E
:101BD0000073002BF0D17B68DA697B681B6A1A43BB
:101BE0007B685B6A9B011A437B689B6A5B08013BCD
:101BF0001B041A437B68DB6A1B061A437B681B6B5A
:101C00001B071B4913434B601B4B01221A60FEF755
:101C1000BBFF386108E0FEF7B7FF02463B69D31A05
:101C2000022B01D9032364E0114B1B6803F00073FE
:101C3000002BF0D05CE0104B00221A60FEF7A4FFEE
:101C4000386108E0FEF7A0FF02463B69D31A022B79
:101C500001D903234DE0064B1B6803F00073002BF2
:101C6000F0D145E07B689B69012B07D1012340E05F
:101C70000038024000700040600047421F4B5B6824
:101C8000FB607B689B69012B30D0FB6803F480020A
:101C90007B68DB699A4229D1FB6803F03F027B68CD
:101CA0001B6A9A4222D1FA6847F6C07313407A68D9
:101CB000526A9201934219D1FB6803F440327B6867
:101CC0009B6A5B08013B1B049A420FD1FB6803F03F
:101CD00070627B68DB6A1B069A4207D1FB6803F0DF
:101CE000E0427B681B6B1B079A4201D0012300E096
:101CF000002318461837BD4680BD00BF003802409B
:101D000080B582B000AF78607B68002B01D10123E1
:101D100041E07B6893F83D30DBB2002B06D17B6855
:101D2000002283F83C20786800F039F87B680222B2
:101D300083F83D207B681A687B6804331946104697
:101D400000F0D8F97B68012283F846207B680122E5
:101D500083F83E207B68012283F83F207B680122C4
:101D600083F840207B68012283F841207B680122B0
:101D700083F842207B68012283F843207B6801229C
:101D800083F844207B68012283F845207B68012288
:101D900083F83D20002318460837BD4680BD80B437
:101DA00083B000AF786000BF0C37BD465DF8047BA0
:101DB0007047000080B485B000AF78607B6893F80E
:101DC0003D30DBB2012B01D001234EE07B680222C3
:101DD00083F83D207B681B68DA687B681B6842F0EB
:101DE0000102DA607B681B68234A934222D07B6839
:101DF0001B68B3F1804F1DD07B681B681F4A93425C
:101E000018D07B681B681E4A934213D07B681B68FE
:101E10001C4A93420ED07B681B681B4A934209D030
:101E20007B681B68194A934204D07B681B68184A78
:101E3000934211D17B681B689B6803F00703FB602A
:101E4000FB68062B10D07B681B681A687B681B68D0
:101E500042F001021A6007E07B681B681A687B6821
:101E60001B6842F001021A60002318461437BD4671
:101E70005DF8047B704700BF000001400004004093
:101E800000080040000C00400004014000400140F8
:101E90000018004080B582B000AF78607B681B6896
:101EA0001B6903F00203022B22D17B681B68DB68ED
:101EB00003F00203022B1BD17B681B686FF0020248
:101EC0001A617B6801221A777B681B689B6903F0A3
:101ED0000303002B03D0786800F0EEF805E0786883
:101EE00000F0E0F8786800F0F1F87B6800221A77DB
:101EF0007B681B681B6903F00403042B22D17B68F9
:101F00001B68DB6803F00403042B1BD17B681B6890
:101F10006FF004021A617B6802221A777B681B68E3
:101F20009B6903F44073002B03D0786800F0C4F879
:101F300005E0786800F0B6F8786800F0C7F87B68CC
:101F400000221A777B681B681B6903F00803082BC3
:101F500022D17B681B68DB6803F00803082B1BD1C8
:101F60007B681B686FF008021A617B6804221A778D
:101F70007B681B68DB6903F00303002B03D07868E0
:101F800000F09AF805E0786800F08CF8786800F0C6
:101F90009DF87B6800221A777B681B681B6903F039
:101FA0001003102B22D17B681B68DB6803F0100341
:101FB000102B1BD17B681B686FF010021A617B68C5
:101FC00008221A777B681B68DB6903F44073002BD7
:101FD00003D0786800F070F805E0786800F062F8E7
:101FE000786800F073F87B6800221A777B681B68BA
:101FF0001B6903F00103012B0ED17B681B68DB68B2
:1020000003F00103012B07D17B681B686FF001020D
:102010001A617868FEF76AFC7B681B681B6903F02D
:102020008003802B0ED17B681B68DB6803F0800384
:10203000802B07D17B681B686FF080021A6178687B
:1020400000F002F97B681B681B6903F04003402B1A
:102050000ED17B681B68DB6803F04003402B07D17F
:102060007B681B686FF040021A61786800F038F8EE
:102070007B681B681B6903F02003202B0ED17B6853
:102080001B68DB6803F02003202B07D17B681B68EB
:102090006FF020021A61786800F0CCF800BF0837B2
:1020A000BD4680BD80B483B000AF786000BF0C3700
:1020B000BD465DF8047B704780B483B000AF7860A4
:1020C00000BF0C37BD465DF8047B704780B483B019
:1020D00000AF786000BF0C37BD465DF8047B7047E9
:1020E00080B483B000AF786000BF0C37BD465DF8A8
:1020F000047B704780B485B000AF786039607B683E
:102100001B68FB607B68404A934213D07B68B3F145
:10211000804F0FD07B683D4A93420BD07B683C4A8E
:10212000934207D07B683B4A934203D07B683A4A8C
:10213000934208D1FB6823F07003FB603B685B6847
:10214000FA681343FB607B682F4A93422BD07B686D
:10215000B3F1804F27D07B682C4A934223D07B6811
:102160002B4A93421FD07B682A4A93421BD07B683C
:10217000294A934217D07B68284A934213D07B6840
:10218000274A93420FD07B68264A93420BD07B6844
:10219000254A934207D07B68244A934203D07B6848
:1021A000234A934208D1FB6823F44073FB603B68E9
:1021B000DB68FA681343FB60FB6823F080023B682E
:1021C0005B691343FB607B68FA681A603B689A6836
:1021D0007B68DA623B681A687B689A627B680A4AA5
:1021E000934203D07B680C4A934203D13B681A693F
:1021F0007B681A637B6801225A6100BF1437BD46B1
:102200005DF8047B704700BF0000014000040040FF
:1022100000080040000C0040000401400040014064
:10222000004401400048014000180040001C0040EC
:102230000020004080B483B000AF786000BF0C374E
:10224000BD465DF8047B704780B483B000AF786012
:1022500000BF0C37BD465DF8047B704780B483B087
:1022600000AF78607B6803F108027B685A607B6886
:102270004FF0FF329A607B6803F108027B68DA60F6
:102280007B6803F108027B681A617B6800221A6090
:1022900000BF0C37BD465DF8047B704780B483B047
:1022A00000AF78607B6800221A6100BF0C37BD4622
:1022B0005DF8047B704780B485B000AF786039600A
:1022C0003B681B68BB60BB68B3F1FF3F03D17B6811
:1022D0001B69FB600CE07B680833FB6002E0FB6875
:1022E0005B68FB60FB685B681B68BA689A42F6D261
:1022F000FB685A683B685A603B685B683A689A605A
:102300003B68FA689A60FB683A685A603B687A688A
:102310001A617B681B685A1C7B681A6000BF1437FF
:10232000BD465DF8047B704780B485B000AF78602F
:102330007B681B69FB607B685B687A6892689A605F
:102340007B689B687A6852685A60FB685B687A6849
:102350009A4203D17B689A68FB685A607B680022C6
:102360001A61FB681B685A1EFB681A60FB681B68D1
:1023700018461437BD465DF8047B704780B586B0BB
:1023800000AF7860396001237B617B683B613B690A
:10239000002B0AD14FF0500383F31188BFF36F8FE6
:1023A000BFF34F8FFB6000BFFEE73B69002B5DD0A2
:1023B0003B69DB6B002B59D03B691A6C3B69DB6BCB
:1023C0000021A3FB0223002B00D001210B46002B90
:1023D0004CD101F0B1FE3B691A683B69DB6B39698E
:1023E000096C01FB03F31A443B699A603B690022C4
:1023F0009A633B691A683B695A603B691A683B6992
:10240000DB6B013B3969096C01FB03F31A443B693F
:10241000DA603B69FF2283F844203B69FF2283F89E
:1024200045203B68002B14D13B691B69002B1AD057
:102430003B691033184601F01BF80346002B12D0FD
:10244000154B4FF080521A60BFF34F8FBFF36F8F61
:1024500009E03B6910331846FFF700FF3B6924335E
:102460001846FFF7FBFE01F097FE01E000237B61B9
:102470007B69002B0AD14FF0500383F31188BFF31F
:102480006F8FBFF34F8FBB6000BFFEE77B691846BD
:102490001837BD4680BD00BF04ED00E080B58AB0AE
:1024A00002AFF860B9601346FB710023FB61FB6863
:1024B000002B2ED00021BA68FB68A3FB0223002B5F
:1024C00000D001210B46002B23D1FB68BA6802FB28
:1024D00003F313F1510F1CD8FB68BA6802FB03F336
:1024E000BB61BB695033184601F050FFF861FB69CE
:1024F000002B1CD0FB697B617B6950337B61FA79CF
:10250000FB69009313467A69B968F86800F014F81B
:102510000DE0FB69002B0AD14FF0500383F31188C3
:10252000BFF36F8FBFF34F8F3B6100BFFEE7FB69C7
:1025300018462037BD4680BD80B584B000AFF86036
:10254000B9607A60FB70BB68002B03D1BB69BA69C4
:102550001A6002E0BB697A681A60BB69FA68DA63DC
:10256000BB69BA681A640121B869FFF707FFBB6944
:10257000FA7883F84C20FB78BA68F968732003F086
:1025800069FE00BF1037BD4680BD000090B58FB01A
:1025900002AFF860B9607A600023FB62FB68BB623F
:1025A000BB6A002B0AD14FF0500383F31188BFF3AD
:1025B0006F8FBFF34F8F3B6200BFFEE7BB68002BFE
:1025C00003D1BB6A1B6C002B01D1012300E0002367
:1025D000002B0AD14FF0500383F31188BFF36F8FA4
:1025E000BFF34F8FFB6100BFFEE701F053F90346D5
:1025F000002B02D17B68002B01D1012300E00023D6
:10260000002B0AD14FF0500383F31188BFF36F8F73
:10261000BFF34F8FBB6100BFFEE701F08DFDBB6ACA
:102620009B6B7B627B6A002B2FD0B968B86A00F085
:10263000BDF8BB6A184604F03BFB0446002004F0DA
:1026400037FB02467B680121009121465C2003F0A4
:1026500077FE7B6A5A1EBB6A9A63BB6A1B69002BB2
:102660000FD0BB6A1033184600F002FF0346002B60
:1026700007D04D4B4FF080521A60BFF34F8FBFF31E
:102680006F8F01F089FD01238AE07B68002B13D155
:1026900001F082FDBB6A184604F00AFB04460020E4
:1026A00004F006FB02467B680121009121465C2074
:1026B00003F046FE002373E0FB6A002B06D107F10E
:1026C0001003184600F0ACFF0123FB6201F064FD2B
:1026D00000F0AAFB01F030FDBB6A93F844305BB216
:1026E000B3F1FF3F03D1BB6A002283F84420BB6AE9
:1026F00093F845305BB2B3F1FF3F03D1BB6A0022D0
:1027000083F8452001F048FD3A1D07F110031146FA
:10271000184600F09BFF0346002B24D1B86A00F056
:10272000BDF80346002B18D0BB6A24337A681146E3
:10273000184600F031FEB86A00F05EF800F082FB47
:102740000346002B7FF469AF174B4FF080521A609D
:10275000BFF34F8FBFF36F8F5FE7B86A00F04CF89D
:1027600000F070FB59E7B86A00F046F800F06AFB29
:10277000B86A00F093F80346002B3FF44EAFBB6AF3
:10278000184604F095FA0446002004F091FA024637
:102790007B680121009121465C2003F0D1FD0023DC
:1027A00018463437BD4690BD04ED00E080B582B0D8
:1027B00000AF786039607B681B6C002B18D07B6899
:1027C000DA687B681B6C1A447B68DA607B68DA68BD
:1027D0007B689B689A4203D37B681A687B68DA60DF
:1027E0007B68D9687B681B6C1A46386804F028FC43
:1027F00000BF0837BD4680BD80B584B000AF7860AB
:1028000001F09AFC7B6893F84530FB7311E07B681C
:102810005B6A002B12D07B682433184600F028FE38
:102820000346002B01D000F077FFFB7B013BDBB2BE
:10283000FB7397F90F30002BE9DC00E000BF7B68E9
:10284000FF2283F8452001F0A7FC01F075FC7B68AE
:1028500093F84430BB7311E07B681B69002B12D0E6
:102860007B681033184600F003FE0346002B01D0AE
:1028700000F052FFBB7B013BDBB2BB7397F90E301C
:10288000002BE9DC00E000BF7B68FF2283F84420D6
:1028900001F082FC00BF1037BD4680BD80B584B01A
:1028A00000AF786001F048FC7B689B6B002B02D185
:1028B0000123FB6001E00023FB6001F06DFCFB687D
:1028C00018461037BD4680BD80B586B000AF786031
:1028D000396000233B617B68002B0AD14FF0500325
:1028E00083F31188BFF36F8FBFF34F8FFB6000BF7F
:1028F000FEE73B68002B24D000237B611EE01C4ACE
:102900007B69DB0013445B687A689A4205D17B6976
:10291000DB00174A13443B6113E03B69002B0AD1EB
:10292000134A7B6952F83330002B04D17B69DB00FA
:102930000F4A13443B617B6901337B617B69072B41
:10294000DDD93B69002B0FD03B693A681A603B69BF
:102950007A685A607B68184604F0AAF901463B6819
:102960001A46712003F01CFC00BF1837BD4680BD1D
:102970008400002080B586B000AFF860B9607A604E
:10298000FB687B6101F0D8FB7B6993F844305BB254
:10299000B3F1FF3F03D17B69002283F844207B69B8
:1029A00093F845305BB2B3F1FF3F03D17B6900225E
:1029B00083F8452001F0F0FB7B699B6B002B06D16F
:1029C0007B6924337A68B968184600F009FD786994
:1029D000FFF712FF00BF1837BD4680BD80B58CB031
:1029E00004AFF860B9603B601346FB80FB889B0036
:1029F000184601F0CBFC78617B69002B13D058207E
:102A000001F0C4FCF861FB69002B08D058220021BA
:102A1000F86904F023FBFB697A691A6305E07869B9
:102A200001F06EFD01E00023FB61FB69002B13D078
:102A3000FA8800230393FB690293FB6A0193BB6A44
:102A400000933B68B968F86800F00EF8F86900F088
:102A500099F80123BB6102E04FF0FF33BB61BB6912
:102A600018462037BD4680BD80B588B000AFF860FD
:102A7000B9607A603B603B6B186B7B689B001A46C1
:102A8000A52104F0EBFA3B6B1A6B7B6803F18043E2
:102A9000013B9B001344BB61BB6923F00703BB618F
:102AA000BB6903F00703002B0AD04FF0500383F3F8
:102AB0001188BFF36F8FBFF34F8F7B6100BFFEE7BD
:102AC000BB68002B1ED00023FB6112E0BA68FB69D3
:102AD000134419783A6BFB69134434330A461A706D
:102AE000BA68FB6913441B78002B06D0FB690133DD
:102AF000FB61FB69092BE9D900E000BF3B6B0022B9
:102B000083F83D20BB6A042B0AD94FF0500383F3AE
:102B10001188BFF36F8FBFF34F8F3B6100BFFEE79C
:102B2000BB6A042B01D90423BB623B6BBA6ADA622D
:102B30003B6BBA6A9A643B6B04331846FFF7AEFBF3
:102B40003B6B18331846FFF7A9FB3B6B3A6B1A61D6
:102B5000BB6AC3F105023B6B9A613B6B3A6B5A62ED
:102B60003A68F968B86901F0B7F902463B6B1A6038
:102B7000FB6A002B02D0FB6A3A6B1A6000BF203759
:102B8000BD4680BDB0B586B002AF786001F0D4FA22
:102B90004F4B1B6801334E4A13604E4B1B68002B92
:102BA00009D14C4A7B681360494B1B68012B10D13B
:102BB00000F0D6FD0DE0484B1B68002B09D1454BBA
:102BC0001B68DA6A7B68DB6A9A4202D8414A7B68F2
:102BD0001360424B1B680133404A13603F4B1A6835
:102BE0007B681A647B68002B16D07B68184603F05C
:102BF00099FF78687B6803F134017B68DA6A7B6847
:102C00001B6B1D467B681B681C467B681B6BE31AAD
:102C100000932B4601F036FE7B68184604F006F858
:102C20007B68DB6A01229A402D4B1B6813432C4AB8
:102C300013607B68DA6A2B4913469B0013449B00A0
:102C40000B4404331B68FB607B68FA689A60FB687E
:102C50009A687B68DA60FB689B687A6804325A601D
:102C60007B681A1DFB689A607B68DA6A13469B00D2
:102C700013449B001B4A1A447B685A617B68DA6ADA
:102C8000184913469B0013449B000B441B68591CB6
:102C9000144813469B0013449B000344196001F041
:102CA0007BFA0D4B1B68002B0ED00A4B1B68DA6AAF
:102CB0007B68DB6A9A4207D20B4B4FF080521A6056
:102CC000BFF34F8FBFF36F8F00BF1037BD46B0BD4E
:102CD0009C010020C4000020A8010020B8010020B1
:102CE000A4010020C800002004ED00E080B584B0FD
:102CF00000AF78600023FB607B68002B1BD0154B76
:102D00001B68002B0AD04FF0500383F31188BFF3E8
:102D10006F8FBFF34F8FBB6000BFFEE700F084F8FA
:102D20007968232003F000FA0021786800F0D0FDD4
:102D300000F088F8F860FB68002B07D1064B4FF0D5
:102D400080521A60BFF34F8FBFF36F8F00BF1037F1
:102D5000BD4680BDC401002004ED00E080B586B012
:102D600002AF294B019300230093002382222749BD
:102D70002748FFF733FEF860FB68012B02D100F013
:102D800027FEF860FB68012B29D14FF0500383F335
:102D90001188BFF36F8FBFF34F8FBB6000BF1D4B18
:102DA0004FF0FF321A601C4B01221A601B4B0022AD
:102DB0001A601B4B1B68343305221449184604F073
:102DC0002FF90346002B05D0154B1B68184603F05E
:102DD000EBFE01E003F08AFE01F00CF90EE0FB6867
:102DE000B3F1FF3F0AD14FF0500383F31188BFF3D3
:102DF0006F8FBFF34F8F7B6000BFFEE7094B1B68EF
:102E000000BF1037BD4680BDC0010020CC70000857
:102E100031370008BC010020A8010020A0010020DB
:102E2000C40000200C00002080B400AF044B1B68DD
:102E30000133034A136000BFBD465DF8047B704751
:102E4000C401002080B588B000AF0023FB610023DF
:102E5000BB61734B1B68002B0AD14FF0500383F307
:102E60001188BFF36F8FBFF34F8F7B6000BFFEE70A
:102E700001F062F96A4B1B68013B694A1360684BB9
:102E80001B68002B40F0C480664B1B68002B00F0D1
:102E9000BF808EE0644BDB68DB68FB61FB699B6A8B
:102EA0003B61FB69DB69FA69126A9A60FB691B6A1C
:102EB000FA69D2695A603B695A68FB6918339A42C9
:102EC00003D1FB691A6A3B695A60FB6900229A6266
:102ED0003B691B685A1E3B691A60FB695B69FB60B2
:102EE000FB699B68FA69D2689A60FB69DB68FA69DA
:102EF00092685A60FB685A68FB6904339A4203D1AE
:102F0000FB69DA68FB685A60FB6900225A61FB685A
:102F10001B685A1EFB681A60FB69184603F086FEA0
:102F2000FB69DB6A01229A40404B1B6813433F4A0E
:102F30001360FB69DA6A3E4913469B0013449B0009
:102F40000B4404331B68BB60FB69BA689A60BB68BA
:102F50009A68FB69DA60BB689B68FA6904325A6058
:102F6000FB691A1DBB689A60FB69DA6A13469B000D
:102F700013449B002E4A1A44FB695A61FB69DA6AC2
:102F80002B4913469B0013449B000B441B68591CA0
:102F9000274813469B0013449B0003441960FB69B8
:102FA000DA6A244B1B68DB6A9A4202D3224B012265
:102FB0001A601D4B1B68002B7FF46CAFFB69002B64
:102FC00001D000F04BFC1D4B1B687B617B69002B23
:102FD00010D000F059F80346002B02D0164B012206
:102FE0001A607B69013B7B617B69002BF1D1134B3C
:102FF00000221A60104B1B68002B09D00123BB6113
:103000000F4B4FF080521A60BFF34F8FBFF36F8F9B
:1030100001F0C2F8BB6918462037BD4680BD00BF2D
:10302000C40100209C0100205C010020A4010020BC
:10303000C8000020C4000020B0010020AC01002026
:1030400004ED00E080B483B000AF054B1B687B60EB
:103050007B6818460C37BD465DF8047B704700BF9F
:10306000A001002080B582B000AF01F04FF900232D
:103070007B60044B1B683B603B6818460837BD46C5
:1030800080BD00BFA001002080B58AB000AF002342
:103090007B627F4B1B68002B40F0F0807D4B1B68F0
:1030A00001333B627B4A3B6A13603B6A002B20D1B1
:1030B000794B1B681B68002B0AD04FF0500383F339
:1030C0001188BFF36F8FBFF34F8F7B6000BFFEE7A8
:1030D000714B1B68FB61714B1B686F4A13606F4A31
:1030E000FB6913606E4B1B6801336D4A136000F07F
:1030F000B5FB6C4B1B683A6A9A42C0F0AA80664BDB
:103100001B681B68002B04D1664B4FF0FF321A601E
:103110009FE0614B1B68DB68DB68BB61BB695B6878
:103120007B613A6A7B699A4203D25E4A7B6913608B
:103130008FE0BB695B693B61BB699B68BA69D26818
:103140009A60BB69DB68BA6992685A603B695A68E1
:10315000BB6904339A4203D1BB69DA683B695A60A0
:10316000BB6900225A613B691B685A1E3B691A60A1
:10317000BB699B6A002B1ED0BB699B6AFB60BB6965
:10318000DB69BA69126A9A60BB691B6ABA69D2695B
:103190005A60FB685A68BB6918339A4203D1BB690D
:1031A0001A6AFB685A60BB6900229A62FB681B6856
:1031B0005A1EFB681A60BB69184603F037FDBB69ED
:1031C000DB6A01229A40384B1B681343364A13606E
:1031D000BB69DA6A354913469B0013449B000B44D4
:1031E00004331B68BB60BB69BA689A60BB689A68A5
:1031F000BB69DA60BB689B68BA6904325A60BB6914
:103200001A1DBB689A60BB69DA6A13469B001344B7
:103210009B00264A1A44BB695A61BB69DA6A234992
:1032200013469B0013449B000B441B68591C1F480A
:1032300013469B0013449B0003441960BB69DA6A80
:103240001B4B1B68DB6A9A427FF659AF01237B62F6
:1032500055E7174B1B68DA6A144913469B00134461
:103260009B000B441B68012B01D901237B62114B8E
:103270001B68002B07D001237B6204E00E4B1B6808
:1032800001330D4A13607B6A18462837BD4680BD5E
:10329000C4010020A001002054010020580100209A
:1032A000B4010020BC010020A4010020C8000020BF
:1032B000C4000020B0010020AC01002080B586B021
:1032C00000AF2F4B1B68002B03D02E4B01221A603E
:1032D00052E02C4B00221A602B4B1B68FB60FB68F2
:1032E000B3FA83F3FB72FB7AC3F11F037B612749B7
:1032F0007A6913469B0013449B000B441B68002B08
:103300000AD14FF0500383F31188BFF36F8FBFF3DF
:103310004F8F7B6000BFFEE77A6913469B00134422
:103320009B001A4A13443B613B695B685A683B69DE
:103330005A603B695A683B6908339A4204D13B6939
:103340005B685A683B695A603B695B68DB68104A96
:1033500013600F4B1B68343305220E49184603F0E7
:103360005FFE0346002B05D0094B1B68184603F08F
:103370001BFC01E003F0BAFB00BF1837BD4680BD5F
:10338000C4010020B0010020A4010020C8000020DA
:10339000C4000020CC70000880B584B000AF786015
:1033A00039607B68002B0AD14FF0500383F31188FA
:1033B000BFF36F8FBFF34F8FFB6000BFFEE7074B7C
:1033C0001B68183319467868FEF775FF01213868C5
:1033D00000F07EFA00BF1037BD4680BDC40000205B
:1033E00080B586B000AFF860B9607A60FB68002BEA
:1033F0000AD14FF0500383F31188BFF36F8FBFF3EF
:103400004F8F3B6100BFFEE7FB685B687B61174B3A
:103410001B687A69DA61154B1B687A6992681A62CF
:10342000124B1A687B699B6818325A600F4B1B68F5
:1034300003F118027B699A600C4B1B68FA689A6268
:10344000FB681B685A1CFB681A607B68002B02D063
:103450004FF0FF33BB60242002F048FE7968B86863
:1034600000F036FA00BF1837BD4680BDC40000200A
:1034700080B58AB000AF78607B68DB68DB683B6250
:103480003B6A002B0AD14FF0500383F31188BFF33E
:103490006F8FBFF34F8FFB6000BFFEE73B6A9B6AF5
:1034A000FB613B6ADB693A6A126A9A603B6A1B6A93
:1034B0003A6AD2695A60FB695A683B6A18339A4281
:1034C00003D13B6A1A6AFB695A603B6A00229A621E
:1034D000FB691B685A1EFB691A604B4B1B68002B6B
:1034E00062D13B6A5B697B613B6A9B683A6AD268DE
:1034F0009A603B6ADB683A6A92685A607B695A68EC
:103500003B6A04339A4203D13B6ADA687B695A60AA
:103510003B6A00225A617B691B685A1E7B691A60EC
:103520003B6A184603F082FB3B6ADB6A01229A4041
:10353000364B1B681343354A13603B6ADA6A3449D9
:1035400013469B0013449B000B4404331B683B61F0
:103550003B6A3A699A603B699A683B6ADA603B6900
:103560009B683A6A04325A603B6A1A1D3B699A604A
:103570003B6ADA6A13469B0013449B00244A1A44B0
:103580003B6A5A613B6ADA6A214913469B0013443D
:103590009B000B441B68591C1D4813469B00134499
:1035A0009B00034419601BE01A4B5B68BB613B6ADC
:1035B000BA69DA61BB699A683B6A1A62BB699B683F
:1035C0003A6A18325A603B6A03F11802BB699A6082
:1035D0003B6A104A9A620F4B1B6801330D4A136015
:1035E0003B6ADA6A0C4B1B68DB6A9A4205D90123F5
:1035F0007B620A4B01221A6001E000237B627B6A36
:1036000018462837BD4680BDC4010020A401002013
:10361000C80000205C010020C4000020B001002090
:1036200080B483B000AF7860064B1A687B681A607C
:10363000054B1A687B685A6000BF0C37BD465DF8C1
:10364000047B7047B4010020A001002080B588B041
:1036500000AF786039607B68002B0AD14FF05003CF
:1036600083F31188BFF36F8FBFF34F8F3B6100BFB0
:10367000FEE73B68002B0AD14FF0500383F311881B
:10368000BFF36F8FBFF34F8FFB6000BFFEE700F00B
:1036900053FD1F4B1B68BB617B685B68BA69D31A1B
:1036A0007B613B681B68B3F1FF3F02D10023FB61E4
:1036B00026E07B681A68174B1B689A420AD07B6821
:1036C0005B68BA699A4205D30123FB613B6800221B
:1036D0001A6015E03B681B687A699A420BD23B6816
:1036E0001A687B69D21A3B681A607868FFF798FFFE
:1036F0000023FB6104E03B6800221A600123FB61A8
:1037000000F04AFDFB6918462037BD4680BD00BF6A
:10371000A0010020B401002080B400AF034B0122BF
:103720001A6000BFBD465DF8047B7047B001002001
:1037300080B582B000AF786000F052F8064B1B688D
:10374000012BF9D9054B4FF080521A60BFF34F8F10
:10375000BFF36F8FF0E700BFC800002004ED00E06A
:1037600080B582B000AF00237B600CE07A6813461E
:103770009B0013449B00124A13441846FEF76EFD4B
:103780007B6801337B607B68042BEFD90D48FEF723
:1037900065FD0D48FEF762FD0C48FEF75FFD0C4825
:1037A000FEF75CFD0B48FEF759FD0B4B054A1A600E
:1037B0000A4B054A1A6000BF0837BD4680BD00BFEE
:1037C000C80000202C010020400100205C010020E6
:1037D00070010020880100205401002058010020C1
:1037E00080B582B000AF19E000F0A6FC104BDB689A
:1037F000DB687B607B6804331846FEF795FD0D4B54
:103800001B68013B0B4A13600B4B1B68013B0A4AC8
:10381000136000F0C1FC786800F010F8064B1B68DC
:10382000002BE1D100BF00BF0837BD4680BD00BFFF
:10383000700100209C0100208401002080B582B02E
:1038400000AF78607B681B6B184600F059FE786803
:1038500000F056FE00BF0837BD4680BD80B400AF03
:103860000A4B1B681B68002B04D1094B4FF0FF3239
:103870001A6005E0054B1B68DB681B68044A13608F
:1038800000BFBD465DF8047B704700BF54010020B7
:10389000BC01002080B483B000AF0B4B1B68002B31
:1038A00002D101237B6008E0084B1B68002B02D18A
:1038B00002237B6001E000237B607B6818460C37A5
:1038C000BD465DF8047B7047A8010020C4010020BC
:1038D00080B586B000AF78603960364B1B687B617D
:1038E000354B1B6804331846FEF71EFD0346002BBC
:1038F0000BD1314B1B68DB6A012202FA03F3DA4376
:103900002E4B1B6813402D4A13607B68B3F1FF3FB9
:1039100024D13B68002B21D0294B5B683B61264BAF
:103920001B683A699A60244B1B683A699268DA60AE
:10393000214B1A683B699B6804325A601E4B1B6816
:103940001A1D3B699A601C4B1B681D4A5A611C4B2F
:103950001B6801331A4A136000BF26E07A697B684E
:103960001344FB60144B1B68FA685A60FA687B6961
:103970009A4209D2134B1A680F4B1B68043319463D
:103980001046FEF798FC10E00F4B1A680A4B1B68B4
:10399000043319461046FEF78EFC0C4B1B68FA6880
:1039A0009A4202D2094AFB68136000BF1837BD462D
:1039B00080BD00BFA0010020C4000020A4010020A1
:1039C000880100205801002054010020BC01002083
:1039D00080B584B002AF00237B6000F047FA114B42
:1039E0001B68002B0BD0104B019302230093002384
:1039F0004FF482720D490E48FEF7F0FF78607B6845
:103A0000002B0AD14FF0500383F31188BFF36F8F5F
:103A1000BFF34F8F3B6000BFFEE77B681846083757
:103A2000BD4680BDF8010020FC010020D4700008D4
:103A3000D93A000880B584B000AFF860B9607A6008
:103A400008E0FB689B69BA681344BB60FB681B6AAB
:103A5000F8689847FB689A69BB68D118BB687A68B0
:103A6000F86800F0DDF80346002BEAD100BF00BF84
:103A70001037BD4680BD000080B584B000AF7860CF
:103A80003960144B1B68DB68DB68FB60FB68043340
:103A90001846FEF749FCFB6893F8283003F004034E
:103AA000002B05D03A687968F868FFF7C3FF08E093
:103AB000FB6893F8283023F00103DAB2FB6883F83F
:103AC0002820FB681B6AF868984700BF1037BD467E
:103AD00080BD00BFF001002080B584B000AF7860E9
:103AE00007F10803184600F057F8F860BB6819465C
:103AF000F86800F003F800F0D5F8F1E780B584B07D
:103B000000AF78603960FFF78FF907F108031846B6
:103B100000F066F8F860BB68002B30D13B68002BE2
:103B20000AD17A68FB689A4206D8FFF78BF9F968E0
:103B30007868FFF7A1FF24E03B68002B08D0134B07
:103B40001B681B68002B01D1012300E000233B60B0
:103B50000F4B18687A68FB68D31A3A681946FEF763
:103B600009FFFFF76FF90346002B0AD1094B4FF00D
:103B700080521A60BFF34F8FBFF36F8F01E0FFF7E2
:103B800061F900BF1037BD4680BD00BFF4010020C1
:103B9000F801002004ED00E080B485B000AF78604B
:103BA0000E4B1B681B68002B01D1012200E0002294
:103BB0007B681A607B681B68002B05D1074B1B686C
:103BC000DB681B68FB6001E00023FB60FB681846B4
:103BD0001437BD465DF8047B704700BFF00100203C
:103BE00080B584B000AF7860FFF72CFAF8600B4B1B
:103BF0001B68FA689A4205D200F012F97B6801222C
:103C00001A6002E07B6800221A60044AFB681360B5
:103C1000FB6818461037BD4680BD00BF000200207B
:103C200080B586B000AFF860B9607A603B60002371
:103C30007B61FB68BA685A60FB68FA681A61BA6807
:103C40007B689A4212D87A683B68D21AFB689B69F3
:103C50009A4202D301237B611BE0104B1A68FB6878
:103C6000043319461046FEF726FB12E07A683B68DB
:103C70009A4206D2BA683B689A4202D301237B611A
:103C800007E0074B1A68FB68043319461046FEF735
:103C900012FB7B6918461837BD4680BDF401002031
:103CA000F001002080B588B000AFA6E0BB68002B13
:103CB000C0F2A2803B69FB61FB695B69002B04D009
:103CC000FB6904331846FEF72FFB3B1D1846FFF730
:103CD00087FFB861BB68013B082B00F28E8001A210
:103CE00052F823F0093D0008093D0008713D000825
:103CF000853D0008CF3D0008093D0008093D00084A
:103D0000713D0008853D0008FB6993F8283043F0B9
:103D10000103DAB2FB6983F82820FA68FB699B6922
:103D2000D118FB68BA69F869FFF77AFF0346002BE0
:103D300063D0FB6993F8283003F00403002B09D00B
:103D4000FA68FB699B691344BA691946F869FFF779
:103D500071FE08E0FB6993F8283023F00103DAB222
:103D6000FB6983F82820FB691B6AF869984744E0DF
:103D7000FB6993F8283023F00103DAB2FB6983F87A
:103D800028203AE0FB6993F8283043F00103DAB2C7
:103D9000FB6983F82820FA68FB699A61FB699B69D3
:103DA000002B0AD14FF0500383F31188BFF36F8FBC
:103DB000BFF34F8F7B6100BFFEE7FB699A69BB6968
:103DC000D118BB69BA69F869FFF72AFF15E0FB69EA
:103DD00093F8283003F00203002B03D1F86900F0B8
:103DE0008FFB0AE0FB6993F8283023F00103DAB275
:103DF000FB6983F8282000E000BF084B1B6807F12F
:103E0000080100221846FEF7C1FB0346002B7FF491
:103E10004DAF00BF00BF2037BD4680BDF801002078
:103E200080B582B000AF09E00E4B1B68DB681B68F1
:103E30003B604FF0FF313868FFF71EFE094B1B68EF
:103E40001B68002BF0D1074B1B687B60064B1B687F
:103E5000044A1360044A7B68136000BF0837BD46FC
:103E600080BD00BFF0010020F401002080B500AF4C
:103E700000F062F9124B1B68002B1DD11148FEF7B0
:103E8000EDF91148FEF7EAF9104B0E4A1A60104B93
:103E90000D4A1A6000220C210A20FEF7FFFA0346A1
:103EA000074A1360064B1B68002B05D0044B1B68A8
:103EB00008491846FEF708FD00F06EF900BF80BD06
:103EC000F8010020C8010020DC010020F0010020E2
:103ED000F4010020DC70000880B485B000AFF86009
:103EE000B9607A60FB68043BFB60FB684FF080724E
:103EF0001A60FB68043BFB60BB6823F00102FB68AF
:103F00001A60FB68043BFB600C4AFB681A60FB68A4
:103F1000143BFB607A68FB681A60FB68043BFB603B
:103F2000FB686FF002021A60FB68203BFB60FB68D5
:103F300018461437BD465DF8047B7047413F0008C2
:103F400080B485B000AF00237B60124B1B68B3F1D7
:103F5000FF3F0AD04FF0500383F31188BFF36F8FF8
:103F6000BFF34F8FFB6000BFFEE74FF0500383F3BA
:103F70001188BFF36F8FBFF34F8FBB6000BF00BFCF
:103F80007B68002BFCD000BF00BF1437BD465DF836
:103F9000047B7047100000200000000000000000BB
:103FA000074B19680868B0E8F04F80F30988BFF341
:103FB0006F8F4FF0000080F311887047AFF30080DF
:103FC000C400002000BF00BF08480068006880F3FC
:103FD00008884FF0000080F3148862B661B6BFF322
:103FE0004F8FBFF36F8F00DF00BF000008ED00E0D0
:103FF00000BF00BF80B586B000AF464B1B68464A85
:1040000093420AD14FF0500383F31188BFF36F8FAF
:10401000BFF34F8F3B6100BFFEE73E4B1B683F4A3B
:1040200093420AD14FF0500383F31188BFF36F8F8F
:10403000BFF34F8FFB6000BFFEE7394B7B617B69AD
:104040001B78DBB27B607B69FF221A707B691B786F
:10405000DBB2FB70FB78DBB203F05003DAB2314B1A
:104060001A70314B07221A6009E02F4B1B68013B85
:104070002D4A1360FB78DBB25B00DBB2FB70FB7890
:10408000DBB203F08003802BEFD0274B1B68C3F11A
:104090000703042B0AD04FF0500383F31188BFF3BA
:1040A0006F8FBFF34F8FBB6000BFFEE71E4B1B68D7
:1040B0001B021D4A13601C4B1B6803F4E0631A4A81
:1040C00013607B68DAB27B691A70184B1B68174A59
:1040D00043F470031360154B1B68144A43F070439C
:1040E000136000F0E3F8124B00221A6000F002F9AE
:1040F000104B1B680F4A43F040431360FFF764FF07
:10410000FFF7DCF8FFF71CFF002318461837BD4601
:1041100080BD00BF00ED00E071C20F4170C20F41D1
:1041200000E400E0040200200802002020ED00E08E
:104130001000002034EF00E080B483B000AF4FF0F7
:10414000500383F31188BFF36F8FBFF34F8F7B60F2
:1041500000BF0F4B1B6801330D4A13600C4B1B68EB
:10416000012B0FD10B4B1B68DBB2002B0AD04FF099
:10417000500383F31188BFF36F8FBFF34F8F3B6002
:1041800000BFFEE700BF0C37BD465DF8047B7047FB
:104190001000002004ED00E080B483B000AF124BAB
:1041A0001B68002B0AD14FF0500383F31188BFF333
:1041B0006F8FBFF34F8F7B6000BFFEE70A4B1B681A
:1041C000013B094A1360084B1B68002B05D10023F3
:1041D0003B603B6883F3118800BF00BF0C37BD46CE
:1041E0005DF8047B704700BF100000200000000055
:1041F000EFF30980BFF36F8F154B1A681EF0100F95
:1042000008BF20ED108A20E9F04F10602DE9090069
:104210004FF0500080F31188BFF34F8FBFF36F8FC3
:10422000FFF74CF84FF0000080F3118809BC1968C3
:104230000868B0E8F04F1EF0100F08BFB0EC108A0D
:1042400080F30988BFF36F8F704700BFAFF3008022
:10425000C400002000BF00BF80B582B000AF4FF0A7
:10426000500383F31188BFF36F8FBFF34F8F7B60D1
:1042700000BF02F0C1FBFEF707FF0346002B06D08C
:1042800002F018FC084B4FF080521A6001E002F077
:10429000F5FB00233B603B6883F3118800BF00BF40
:1042A0000837BD4680BD00BF04ED00E080B400AF1C
:1042B0000B4B00221A600B4B00221A600A4B1B6842
:1042C0000A4AA2FB03239B09094A013B1360044BE2
:1042D00007221A6000BFBD465DF8047B704700BF2F
:1042E00010E000E018E000E000000020D34D621074
:1042F00014E000E0DFF80C00016841F47001016097
:104300007047000088ED00E000BF00BF80B485B0BA
:1043100000AFEFF30583FB60FB680F2B14D9174A3E
:10432000FB6813441B78FB72154B1B78FA7A9A4290
:104330000AD24FF0500383F31188BFF36F8FBFF39E
:104340004F8F7B6000BFFEE70E4B1B6803F4E062FB
:104350000D4B1B689A420AD94FF0500383F3118822
:10436000BFF36F8FBFF34F8F3B6000BFFEE700BF0F
:104370001437BD465DF8047B704700BFF0E300E0F2
:10438000040200200CED00E00802002080B58AB095
:1043900000AF78600023FB61FEF746FD534B1B68BE
:1043A000002B01D100F008F97B68002B12D0082205
:1043B0007B6803F00703D31A0833BB61BB69DB4397
:1043C0007A689A4204D87A68BB6913447B6001E03A
:1043D00000237B607B68002B70DB7B68002B6DD03B
:1043E000434B1B687A689A4268D8424B3B62414B08
:1043F0001B687B6204E07B6A3B627B6A1B687B62B2
:104400007B6A5B687A689A4203D97B6A1B68002BD7
:10441000F1D1364B1B687A6A9A424FD03B6A1B68CF
:1044200008221344FB617B6A1A683B6A1A607B6A44
:104430005A687B68D21A08235B009A421FD97A6AAD
:104440007B6813447B617B6903F00703002B0AD070
:104450004FF0500383F31188BFF36F8FBFF34F8F7B
:104460003B6100BFFEE77B6A5A687B68D21A7B69B2
:104470005A607B6A7A685A60786900F0F9F81C4BD8
:104480001A687B6A5B68D31A194A1360184B1A685A
:10449000194B1B689A4203D2154B1B68164A1360CE
:1044A0007B6A5B6843F000427B6A5A607B6A002249
:1044B0001A60124B1B680133104A1360FEF7C2FCEE
:1044C000FB6903F00703002B0AD04FF0500383F37E
:1044D0001188BFF36F8FBFF34F8FFB6000BFFEE704
:1044E000FB6918462837BD4680BD00BF142E012049
:1044F000182E01200C2E01201C2E0120202E012020
:1045000080B586B000AF78607B687B617B68002BEC
:1045100049D008235B427A6913447B617B693B6124
:104520003B695B68002B0ADB4FF0500383F3118873
:10453000BFF36F8FBFF34F8FFB6000BFFEE73B6998
:104540001B68002B0AD04FF0500383F31188BFF390
:104550006F8FBFF34F8FBB6000BFFEE73B695B68A7
:10456000DB0F03F00103DBB2002B1CD03B691B689F
:10457000002B18D13B695B6823F000423B695A600D
:10458000FEF752FC3B695A68094B1B681344084A02
:104590001360386900F06CF8064B1B680133054A5C
:1045A0001360FEF74FFC00BF1837BD4680BD00BF4B
:1045B000182E0120242E012080B485B000AF4FF4C6
:1045C0009633BB60254BFB60FB6803F00703002BB1
:1045D0000CD0FB680733FB60FB6823F00703FB602C
:1045E000BA68FB68D31A1D4A1344BB60FB687B6042
:1045F0001B4A7B6813601A4B00225A607B68BA68BA
:104600001344FB600822FB689B1AFB60FB6823F0E5
:104610000703FB60FB68134A1360124B1B68002200
:104620005A60104B1B6800221A607B683B603B6835
:10463000FA68D21A3B685A600A4B1A683B681A60DB
:104640003B685B68084A13603B685B68074A136015
:1046500000BF1437BD465DF8047B70470C02002094
:104660000C2E0120142E01201C2E0120182E0120BA
:1046700080B485B000AF7860284BFB6002E0FB6837
:104680001B68FB60FB681B687A689A42F7D8FB6876
:10469000BB60FB685B68BA6813447A689A4208D1C9
:1046A000FB685A687B685B681A44FB685A60FB6861
:1046B0007B607B68BB607B685B68BA681A44FB6898
:1046C0001B689A4218D1FB681A68154B1B689A42FE
:1046D0000DD07B685A68FB681B685B681A447B686E
:1046E0005A60FB681B681A687B681A6008E00C4B0C
:1046F0001A687B681A6003E0FB681A687B681A60B6
:10470000FA687B689A4202D0FB687A681A6000BF38
:104710001437BD465DF8047B704700BF0C2E0120A6
:10472000142E012080B500AF034802F00FF90348B2
:1047300002F00CF900BF80BDE4700008247100088D
:1047400080B500AF064B1868054B1968054B064A43
:1047500001F078FC4FF0805001F0B8FC00BF80BD44
:104760000000002025470008C0710008F0B585B0A2
:1047700002AF00237B6033E01E497A6813469B003A
:1047800013449B000B4418681A497A6813469B002F
:1047900013449B000B4404331968164C7A68134683
:1047A0009B0013449B00234408331C68114D7A6816
:1047B00013469B0013449B002B440C331D680D4E85
:1047C0007A6813469B0013449B00334410331B68E4
:1047D00000932B46224600F0BDF87B6801337B60D6
:1047E000054B1B687A689A42C6D300BF00BF0C37DE
:1047F000BD46F0BD282E0120C82E01202DE9B04F66
:1048000082B000AFFEF72EFC034600229A46934684
:10481000C7E900ABD7E9000102460B464FF0000A9A
:104820004FF0000B4FEA431B4BEAD26B4FEA421AA0
:1048300052465B46141A63EB01054FF000024FF03D
:104840000003AB0043EA9473A20014461D4614EB28
:10485000000845EB01094FF000024FF000034FEA5A
:10486000C90343EA58734FEAC80290469946C7E91C
:104870000089D7E90023104619460837BD46BDE830
:10488000B08F000080B586B002AFF860B9607A6082
:104890003B6005222B49B86802F0C2FB0346002B9F
:1048A0004BD0294B1B68072B03D9284802F00AFB81
:1048B00044E0254B1A68264913469B0013449B008D
:1048C0000B44FA681A60204B1A68214913469B0072
:1048D00013449B000B440433BA681A601A4B1A68DD
:1048E0001B4913469B0013449B000B4408337A6812
:1048F0001A60154B1A68164913469B0013449B0017
:104900000B440C333A681A600F4B1A68104913466F
:104910009B0013449B000B441033BA691A600A4B86
:104920001B680133084A1360BB6900933B687A68CF
:10493000B968F86800F00EF800E000BF1037BD4617
:1049400080BD00BF34710008C82E01203C710008F2
:10495000282E012080B58AB000AFF860B9607A6077
:104960003B6007F1140314220021184602F076FB85
:10497000FB687B61BB68BB617B68FB613B683B623A
:104980003B6B7B6207F11403184601F0E7FE00BFA2
:104990002837BD4680BD000080B483B000AF034619
:1049A000FB7197F90730002B0BDBFB7903F01F023B
:1049B000074997F907305B09012000FA02F241F834
:1049C000232000BF0C37BD465DF8047B704700BF55
:1049D00000E100E080B483B000AF03463960FB71B2
:1049E00097F90730002B0ADB3B68DAB20C4997F9DC
:1049F00007301201D2B20B4483F800230AE03B686F
:104A0000DAB20849FB7903F00F03043B1201D2B27A
:104A10000B441A7600BF0C37BD465DF8047B704727
:104A200000E100E000ED00E080B582B000AF02F0F0
:104A3000A5FA78607B68002B01D101F013FD00BF5F
:104A40000837BD4680BD000080B582B000AF034688
:104A5000FB710C4B1B78032B06D80A4B1B780133D8
:104A6000DAB2084B1A7009E0FFF7DEFF054B5B680E
:104A70001846FB1D0122194600F09CFB00BF0837B9
:104A8000BD4680BD1400002080B584B000AF7860C2
:104A9000144B5B78032B0FD8124B5B781A46124BE2
:104AA0009A5C7B681A700F4B5B780133DAB20D4B5E
:104AB0005A700123FB600FE00A4B5B6801227968A2
:104AC000184600F01BFA0346FB60FB68002B02DA75
:104AD0000023FB6000E000BFFB6818461037BD46AE
:104AE00080BD00BF14000020C871000880B582B0EE
:104AF00000AF7860044A0549786800F063F800BFA9
:104B00000837BD4680BD00BF494A0008894A0008F1
:104B100080B584B000AF1E4B1B68FB60FB6803F0E0
:104B20002003002B11D01B4B1B68DBB2FB71FB6811
:104B300003F00B03002B08D1174B1B68002B04D08C
:104B4000154B1B68FA7910469847FB6803F0800301
:104B5000002B1AD0114B1B68002B15D00F4B1B6874
:104B6000FA1D10469847B860BB68002B06D10C4B65
:104B70001B680B4A23F08003136006E0044B1B689C
:104B8000FA79044B1A6000E000BF1037BD4680BDC3
:104B90000044004004440040CC2E0120D02E0120CF
:104BA0000C44004080B400AF054B1B68044A43F03E
:104BB0008003136000BFBD465DF8047B704700BFF3
:104BC0000C44004080B586B000AFF860B9607A60F0
:104BD0002E4B1B682D4A43F4003313602C4B1B688B
:104BE0002B4A43F0010313602A4B1B683B613B696E
:104BF00023F47F433B613B6943F4EE433B61254A29
:104C00003B691360244B1B683B613B6923F0F00355
:104C10003B613B6943F0A0033B611F4A3B69136062
:104C20001E4B4AF22C021A601D4B00221A601D4BCB
:104C300080221A60FB68DB007B611B4A7B69B2FB48
:104C4000F3F301337B617B695B087B617B69B3F5BF
:104C5000805F02D340F6FF737B617B69002B04D039
:104C60007B691B01114A9BB21360114A7B68136078
:104C7000104ABB68136006212620FFF7ABFE2620F2
:104C8000FFF78AFE00BF1837BD4680BD403802409E
:104C90003038024020000240000002400C44004036
:104CA000104400401444004000BD01050844004089
:104CB000CC2E0120D02E012080B582B000AF264B33
:104CC0003B60A8220021386802F0C8F93B68032243
:104CD0001A613B6803225A613B68204A9A613B682B
:104CE0001F4ADA613B684FF480621A623B68002217
:104CF0009A623B6800225A623B680022DA623B6893
:104D0000164A1A663B68174A5A663B6810229A662A
:104D10003B6800221A673B680022DA663B68002283
:104D20005A67BFF35F8F00237B600CE07B68C3F1A1
:104D30000F030D4AD15C3A687B6813440A461A7027
:104D40007B6801337B607B680F2BEFD9BFF35F8FEC
:104D500000BF0837BD4680BDD42E01208C710008ED
:104D60007C2F01207C330120CC71000880B58AB0F3
:104D700000AFF860B9607A6000233B62FB68DB68D3
:104D8000FB61FB681B69BB61BA69FB699A4205D983
:104D9000BA69FB69D31A013B7B6207E0FB689A683A
:104DA000B969FB69CB1A1344013B7B62FB689A68C3
:104DB000FB69D31A7A6A934228BF13467B627A6AE8
:104DC0007B68934228BF13467B62FB685A68FB6985
:104DD00013447B617A6AB968786902F031F93A6AFA
:104DE0007B6A13443B62BA687B6A1344BB607A688F
:104DF0007B6AD31A7B60FA697B6A1344FB61FB68A8
:104E00009B68FA699A4201D10023FB61BFF35F8F6F
:104E1000FB68FA69DA607B68002BB2D13B6A1846FE
:104E20002837BD4680BD80B588B000AFF860B96056
:104E30007A60FB68DB68FB61FB689A68FB69D31AE0
:104E4000BB61BA697B689A4211D9FB685A68FB69F1
:104E500013443B617A68B968386902F0F1F8BFF32E
:104E60005F8FFA697B681A44FB68DA601FE0BB69F0
:104E70007B61FB685A68FB6913443B617A69B968D6
:104E8000386902F0DDF87A68BB69D31A7B61FB6888
:104E90005B683B61BA68BB6913447A691946386933
:104EA00002F0CEF8BFF35F8FFB687A69DA6000BF6B
:104EB0002037BD4680BD80B487B000AF78607B6886
:104EC0001B693B617B68DB68FB603A69FB689A425F
:104ED00008D87B689A68FB68D21A3B691344013B87
:104EE0007B6104E03A69FB68D31A013B7B617B6913
:104EF00018461C37BD465DF8047B704780B58CB002
:104F000000AFF860B9607A603E4B3B623B6A1B7849
:104F1000DBB2532B01D0FFF7CFFEFB685A1C1346C0
:104F20005B001344DB00374A1344FB61BB687B62C0
:104F3000FB691B69BB62FB69DB68BB610023FB6229
:104F4000BA6ABB699A422BD9FB699A68BB6AD31AC1
:104F50007B617A697B68934228BF13467B61FB695A
:104F60005A68BB6A13443B617A693969786A02F00E
:104F700067F8FA6A7B691344FB627A6A7B691344B7
:104F80007B627A687B69D31A7B60BA6A7B69134457
:104F9000BB62FB699B68BA6A9A4201D10023BB627B
:104FA000BA69BB6AD31A7B617A697B68934228BF6E
:104FB00013467B617B69002B19D0FB695A68BB6A79
:104FC00013443B617A693969786A02F039F8FA6A00
:104FD0007B691344FB627A6A7B6913447B627A685B
:104FE0007B69D31A7B60BA6A7B691344BB62FB6A34
:104FF000002B02D0FB69BA6A1A61FB6A1846303787
:10500000BD4680BDD42E012080B58CB000AFF860C5
:10501000B9607A603E4B3B623B6A1B78DBB2532B34
:1050200001D0FFF749FEFA6813465B001344DB002A
:105030006033374A1344FB61BB687B62FB691B69C1
:10504000BB62FB69DB68BB610023FB62BA6ABB69B8
:105050009A422BD9FB699A68BB6AD31A7B617A6939
:105060007B68934228BF13467B61FB695A68BB6A21
:1050700013443B617A693969786A01F0E1FFFA6AA1
:105080007B691344FB627A6A7B6913447B627A68AA
:105090007B69D31A7B60BA6A7B691344BB62FB6984
:1050A0009B68BA6A9A4201D10023BB62BA69BB6AA3
:1050B000D31A7B617A697B68934228BF13467B6170
:1050C0007B69002B19D0FB695A68BB6A13443B61AA
:1050D0007A693969786A01F0B3FFFA6A7B69134427
:1050E000FB627A6A7B6913447B627A687B69D31AB4
:1050F0007B60BA6A7B691344BB62FB6A002B02D0F7
:10510000FB69BA6A1A61FB6A18463037BD4680BD32
:10511000D42E012080B588B000AFF860B9607A6005
:10512000BB68BB61FA6813465B001344DB00603365
:105130001F4A13447B617B695B69022B29D0022BD8
:105140002ED8002B02D0012B13D029E07869FFF76D
:10515000B2FE38613A697B689A4202D20023FB6151
:1051600021E07B68FB617A68B9697869FFF75BFECB
:1051700019E07869FFF79FFE38617A683B699342CE
:1051800028BF1346FB61FA69B9697869FFF74BFEDE
:1051900009E07A68B9697869FFF7E8FDF86102E02B
:1051A0000023FB6100BFFB6918462037BD4680BD68
:1051B000D42E012080B588B000AFF860B9607A6065
:1051C0000E4BFB61FB691B78DBB2532B01D0FFF761
:1051D00073FDEFF311834FF0200181F31188BB6160
:1051E0007A68B968F868FFF795FF7861BB6983F35F
:1051F00011887B6918462037BD4680BDD42E01201A
:1052000080B588B000AFF860B9607A603B603D4B14
:10521000BB61BB691B78DBB2532B01D0FFF74CFDA0
:10522000EFF311834FF0200181F311887B61354B3F
:105230003B610023FB613969FB695A1C13465B0023
:105240001344DB000B4404331B68002B08D0FB69BC
:105250000133FB613B691B69FA699A42EBDB00E0B1
:1052600000BF3B691B69FA699A423FDA3969FB69F9
:105270005A1C13465B001344DB000B44FA681A60A7
:105280003969FB695A1C13465B001344DB000B446D
:105290000433BA681A603969FA6913465B0013442B
:1052A000DB000B4420337A681A603969FA691346C7
:1052B0005B001344DB000B44283300221A60396979
:1052C000FA6913465B001344DB000B4424330022CD
:1052D0001A603969FA6913465B001344DB000B441A
:1052E0002C333A681A60BFF35F8F02E04FF0FF3350
:1052F000FB617B6983F31188FB6918462037BD4643
:1053000080BD00BFD42E012080B58AB000AFF86008
:10531000B9607A603B60214B3B623B6A1B78DBB231
:10532000532B01D0FFF7C8FC1C4BFB61FB68022B21
:105330002CD8EFF311834FF0200181F31188BB616A
:10534000FA6813465B001344DB006033FA691344C8
:105350007B61FB68002B0ED07B69BA681A607B69A1
:105360007A685A607B693A689A607B6900221A61A0
:105370007B690022DA607B693A6B5A61BFF35F8F09
:10538000BB6983F3118800237B6202E04FF0FF3397
:105390007B627B6A18462837BD4680BDD42E01202B
:1053A00080B487B000AFF860B9607A60BB687B6199
:1053B000FB685A1CFA603B617B68802B0AD980230A
:1053C0007B6007E0BA68531CBB60FB68591CF9603E
:1053D00012781A707B685A1E7A60002B03D0BB6863
:1053E0001B78002BEED1BA687B69D31ADAB23B691D
:1053F0001A70FB6818461C37BD465DF8047B704781
:1054000080B483B000AF78607B68073318460C37F0
:10541000BD465DF8047B704780B582B000AF354B68
:105420001B7E1846FB1C01221946FFF7EDFD786034
:105430007B68002B52D0FB78802B31D0802B40DC56
:10544000072B15DC002B3CDD013B062B39D801A2D4
:1054500052F823F0775400087D5400088354000864
:10546000895400088F540008955400089B54000884
:105470007F2B35D025E000F0F5FF36E001F0AEF8E7
:1054800033E001F087FA30E001F04CFA2DE001F052
:10549000CBF82AE001F0C4FC27E001F0A3FC24E0F3
:1054A000144B1B7E1846FB1C01221946FFF7ACFD6E
:1054B00078607B68002B15D0FB78184601F008FC5B
:1054C00010E0FB785BB2002B0EDA0A4B1B7E18460D
:1054D000FB1C01221946FFF797FD05E000BF04E021
:1054E00000BF02E000BF00E000BF00BF0837BD46BC
:1054F00080BD00BF9443012080B58CB000AF012374
:105500003B713B1D0133FB61FB69FB62324B5B6905
:10551000BB620BE0BB6ADAB2FB6A591CF96262F04B
:105520007F02D2B21A70BB6ADB09BB62BB6A7F2BF7
:10553000F0D8FB6A5A1CFA62BA6AD2B21A70FB6AD5
:10554000FB61264B1B68BB61234BDB68BA69D31A2E
:105550007B61FB697B627B693B620BE03B6ADAB291
:105560007B6A591C796262F07F02D2B21A703B6A80
:10557000DB093B623B6A7F2BF0D87B6A5A1C7A625C
:105580003A6AD2B21A707B6AFB61134B5B78184699
:105590003B1DFA69D31A1A463B1D1946FAF738FE25
:1055A00003463B61FFF7FEFA3B69002B09D00A4A2C
:1055B000BB69D360084B1B78013BDAB2064B1A700B
:1055C00004E0054B5B690133034A53613B691846AC
:1055D0003037BD4680BD00BF94430120041000E079
:1055E00080B58AB000AFF860B9607A60964B1B78DE
:1055F000012B10D0944B1B78002B00F03081924B84
:105600001B78022B09D1FFF777FF8F4B1B78012BFB
:1056100040F0278101E000BF00E000BF7B681F2B46
:1056200009D8894BDA697B6822FA03F303F0010396
:10563000002B40F018817B68172B07D8FB68013BD3
:10564000FB607B68DAB2FB681A70C4E0BA68FB687A
:10565000D31AFB61FB697F2B12D9FB69DA09FB685E
:10566000013BFB60D2B2FB681A70FB69DBB2FA68DF
:10567000013AFA6063F07F03DAB2FB681A7006E061
:10568000FB68013BFB60FB69DAB2FB681A707B6860
:105690007E2B07D8FB68013BFB607B68DAB2FB68B6
:1056A0001A7098E07B68B3F5804F12D27B68DA09F4
:1056B000FB68013BFB60D2B2FB681A707B68DBB20F
:1056C000FA68013AFA6063F07F03DAB2FB681A7095
:1056D00081E07B68B3F5001F1DD27B689A0BFB68E5
:1056E000013BFB60D2B2FB681A707B68DB09DBB25E
:1056F000FA68013AFA6063F07F03DAB2FB681A7065
:105700007B68DBB2FA68013AFA6063F07F03DAB2D1
:10571000FB681A705FE07B68B3F1805F28D27B681A
:105720005A0DFB68013BFB60D2B2FB681A707B68C4
:105730009B0BDBB2FA68013AFA6063F07F03DAB2DE
:10574000FB681A707B68DB09DBB2FA68013AFA6021
:1057500063F07F03DAB2FB681A707B68DBB2FA6829
:10576000013AFA6063F07F03DAB2FB681A7032E044
:105770007B681A0FFB68013BFB60D2B2FB681A70B2
:105780007B685B0DDBB2FA68013AFA6063F07F0375
:10579000DAB2FB681A707B689B0BDBB2FA68013ADD
:1057A000FA6063F07F03DAB2FB681A707B68DB098A
:1057B000DBB2FA68013AFA6063F07F03DAB2FB68A1
:1057C0001A707B68DBB2FA68013AFA6063F07F0313
:1057D000DAB2FB681A701D4B1B68BB611A4BDB68A1
:1057E000BA69D31A7B61BB687B627B693B620BE061
:1057F0003B6ADAB27B6A591C796262F07F02D2B2EC
:105800001A703B6ADB093B623B6A7F2BF0D87B6AEC
:105810005A1C7A623A6AD2B21A707B6ABB600A4B2F
:105820005B781846BA68FB68D31A1A46F968FAF723
:10583000EFFC3861FFF7B6F93B69002B08D0024A4C
:10584000BB69D36010E000BF94430120041000E066
:10585000194B1B780133DAB2174B1A7004E000BF02
:1058600002E000BF00E000BF134B1B7E1946134A45
:105870000B465B000B44DB0013446C331A680E4B81
:105880001B7E18460D4903465B000344DB000B44B6
:1058900070331B689A420BD0074B9B78002B07D1C3
:1058A000054B01229A70FFF7B7FD034B00229A7057
:1058B00000BF2837BD4680BD94430120D42E01206F
:1058C00080B58AB000AF78600B46FB707B681B69BF
:1058D0007B617B690133802B0AD87B685B68591C2C
:1058E0007A685160FA781A707B695A1C7B681A6171
:1058F0007B681B69802B5AD17B681A697B689B681F
:10590000D2B21A707B685B683B617B68DB68FB60C6
:105910003B697B62FB683B620BE03B6ADAB27B6A05
:10592000591C796262F07F02D2B21A703B6ADB09BD
:105930003B623B6A7F2BF0D87B6A5A1C7A623A6AD8
:10594000D2B21A707B6A3B613B69FB610023BB6189
:105950000BE0BB69DAB2FB69591CF96162F07F02A6
:10596000D2B21A70BB69DB09BB61BB697F2BF0D86F
:10597000FB695A1CFA61BA69D2B21A70FB693B61C1
:105980007B689B681A2239691846FFF729FE7B68F5
:105990001B681846FFF734FD02467B689A607B68F7
:1059A0009B685A1C7B685A607B6800221A6100BFA2
:1059B0002837BD4680BD000080B58AB000AFF860D2
:1059C000B9607A603B60BB683B6201237B62012364
:1059D000FB6107E03A6A7B68B2FBF3F33B62FB6969
:1059E0000133FB613A6A7B689A42F3D23A68FB69F9
:1059F0009A4201D93B68FB617B6B03F00103002BEA
:105A00001FD13B6B002B1CD07B6B03F00203002BE0
:105A100005D03B68002B02D13023FB7601E0202328
:105A2000FB7607E03B6B013B3B63FB7E1946F86866
:105A3000FFF746FF3B6B002B03D0FA693B6B9A42A2
:105A4000F0D33B68012B03D93B68013B3B6009E085
:105A5000BA687B6AB2FBF3F37B617A697B689A422E
:105A600000D205E07B6A7A6802FB03F37B62E8E719
:105A7000BA687B6AB2FBF3F37B617B697A6A02FBEB
:105A800003F3BA68D31ABB60154A7B6913441B78C9
:105A90001946F868FFF714FF7A6A7B68B2FBF3F3E4
:105AA0007B627B6A002BE3D17B6B03F00103002B4D
:105AB00011D03B6B002B0ED006E03B6B013B3B63F0
:105AC0002021F868FFF7FCFE3B6B002B03D0FA693E
:105AD0003B6B9A42F1D300BF2837BD4680BD00BF63
